:10093A0002260061022000FC0228000102240000B5
:10094A00021C0000021A000010083F065B4F666D89
:0A095A007D077F6F777C585E79718E
:1008FD00758910E4F51EF51FC3E51F9FE51E9E507B
:10090D002B85278B85218DE528452924FF928E3057
:10091D008FFDE524452524FF928EE51C451D24FF02
:0D092D00928F051FE51F70D0051E80CC22A3
:10088C00851B90D2B5751810E4F519AF19EF339597
:10089C00E0FED3EF94FFEE6480948050EBE5197585
:1008AC00F00A120965F523E51975F00A1209658538
:1008BC00F02AE4F522AF22EF3395E0FED3EF943229
:1008CC00EE648094805026D2B6C2B774082523F803
:1008DC00E6F5907F0A7E001208FDC2B6D2B7740806
:1008EC00252AF8E6F5901208FD052280C805198026
:0108FC009A61
:03000000020800F3
:0C080000787FE4F6D8FD75812A020847D5
:10096500C2D530F707B2D563F0FF05F030E70CB21A
:10097500D5F4048463F0FF05F080018430D502F4DA
:0209850004224A
:10080C0002088CE493A3F8E493A34003F68001F26E
:10081C0008DFF48029E493A3F85407240CC8C333ED
:10082C00C4540F4420C8834004F456800146F6DFBC
:10083C00E4800B010204081020408090093AE47E09
:10084C00019360BCA3FF543F30E509541FFEE493B1
:10085C00A360010ECF54C025E060A840B8E493A378
:10086C00FAE493A3F8E493A3C8C582C8CAC583CAA3
:10087C00F0A3C8C582C8CAC583CADFE9DEE780BE5B
:010964000092
:00000001FF
